{
  "_format": "hh-sol-artifact-1",
  "contractName": "CenceraAgent",
  "sourceName": "contracts/CenceraAgent.sol",
  "abi": [
    {
      "inputs": [],
      "stateMutability": "nonpayable",
      "type": "constructor"
    },
    {
      "inputs": [],
      "name": "AgentDoesNotExist",
      "type": "error"
    },
    {
      "inputs": [],
      "name": "NotOwner",
      "type": "error"
    },
    {
      "anonymous": false,
      "inputs": [
        {
          "indexed": true,
          "internalType": "uint256",
          "name": "agentId",
          "type": "uint256"
        },
        {
          "indexed": true,
          "internalType": "address",
          "name": "owner",
          "type": "address"
        },
        {
          "indexed": false,
          "internalType": "string",
          "name": "memoryHash",
          "type": "string"
        }
      ],
      "name": "AgentCreated",
      "type": "event"
    },
    {
      "anonymous": false,
      "inputs": [
        {
          "indexed": true,
          "internalType": "uint256",
          "name": "agentId",
          "type": "uint256"
        },
        {
          "indexed": false,
          "internalType": "string",
          "name": "newMemoryHash",
          "type": "string"
        }
      ],
      "name": "MemoryUpdated",
      "type": "event"
    },
    {
      "inputs": [
        {
          "internalType": "uint256",
          "name": "",
          "type": "uint256"
        }
      ],
      "name": "agents",
      "outputs": [
        {
          "internalType": "uint256",
          "name": "id",
          "type": "uint256"
        },
        {
          "internalType": "address",
          "name": "owner",
          "type": "address"
        },
        {
          "internalType": "uint96",
          "name": "innovationScore",
          "type": "uint96"
        },
        {
          "internalType": "string",
          "name": "memoryHash",
          "type": "string"
        }
      ],
      "stateMutability": "view",
      "type": "function"
    },
    {
      "inputs": [
        {
          "internalType": "string",
          "name": "_initialMemoryHash",
          "type": "string"
        }
      ],
      "name": "createAgent",
      "outputs": [
        {
          "internalType": "uint256",
          "name": "",
          "type": "uint256"
        }
      ],
      "stateMutability": "nonpayable",
      "type": "function"
    },
    {
      "inputs": [
        {
          "internalType": "uint256",
          "name": "_agentId",
          "type": "uint256"
        }
      ],
      "name": "getAgent",
      "outputs": [
        {
          "components": [
            {
              "internalType": "uint256",
              "name": "id",
              "type": "uint256"
            },
            {
              "internalType": "address",
              "name": "owner",
              "type": "address"
            },
            {
              "internalType": "uint96",
              "name": "innovationScore",
              "type": "uint96"
            },
            {
              "internalType": "string",
              "name": "memoryHash",
              "type": "string"
            }
          ],
          "internalType": "struct CenceraAgent.Agent",
          "name": "",
          "type": "tuple"
        }
      ],
      "stateMutability": "view",
      "type": "function"
    },
    {
      "inputs": [
        {
          "internalType": "address",
          "name": "_owner",
          "type": "address"
        }
      ],
      "name": "getAgentsByOwner",
      "outputs": [
        {
          "internalType": "uint256[]",
          "name": "",
          "type": "uint256[]"
        }
      ],
      "stateMutability": "view",
      "type": "function"
    },
    {
      "inputs": [
        {
          "internalType": "address",
          "name": "",
          "type": "address"
        },
        {
          "internalType": "uint256",
          "name": "",
          "type": "uint256"
        }
      ],
      "name": "ownerToAgentIds",
      "outputs": [
        {
          "internalType": "uint256",
          "name": "",
          "type": "uint256"
        }
      ],
      "stateMutability": "view",
      "type": "function"
    },
    {
      "inputs": [
        {
          "internalType": "uint256",
          "name": "_agentId",
          "type": "uint256"
        },
        {
          "internalType": "string",
          "name": "_newMemoryHash",
          "type": "string"
        }
      ],
      "name": "updateMemory",
      "outputs": [],
      "stateMutability": "nonpayable",
      "type": "function"
    }
  ],
  "bytecode": "0x608060405234801561001057600080fd5b50600080819055506112d6806100276000396000f3fe608060405234801561001057600080fd5b50600436106100625760003560e01c806302e38b8a146100675780631ab6f888146100975780632de5aaf7146100c7578063513856c8146100f757806380b6185e1461012a578063e405148414610146575b600080fd5b610081600480360381019061007c919061092c565b610176565b60405161008e919061097b565b60405180910390f35b6100b160048036038101906100ac9190610996565b6101a7565b6040516100be9190610a81565b60405180910390f35b6100e160048036038101906100dc9190610aa3565b61023e565b6040516100ee9190610bf9565b60405180910390f35b610111600480360381019061010c9190610aa3565b6103eb565b6040516101219493929190610c83565b60405180910390f35b610144600480360381019061013f9190610d34565b6104db565b005b610160600480360381019061015b9190610d94565b610624565b60405161016d919061097b565b60405180910390f35b6002602052816000526040600020818154811061019257600080fd5b90600052602060002001600091509150505481565b6060600260008373ffffffffffffffffffffffffffffffffffffffff1673ffffffffffffffffffffffffffffffffffffffff16815260200190815260200160002080548060200260200160405190810160405280929190818152602001828054801561023257602002820191906000526020600020905b81548152602001906001019080831161021e575b50505050509050919050565b610246610842565b6000600160008481526020019081526020016000206000015403610296576040517fd3227c9b00000000000000000000000000000000000000000000000000000000815260040160405180910390fd5b60016000838152602001908152602001600020604051806080016040529081600082015481526020016001820160009054906101000a900473ffffffffffffffffffffffffffffffffffffffff1673ffffffffffffffffffffffffffffffffffffffff1673ffffffffffffffffffffffffffffffffffffffff1681526020016001820160149054906101000a90046bffffffffffffffffffffffff166bffffffffffffffffffffffff166bffffffffffffffffffffffff16815260200160028201805461036290610e10565b80601f016020809104026020016040519081016040528092919081815260200182805461038e90610e10565b80156103db5780601f106103b0576101008083540402835291602001916103db565b820191906000526020600020905b8154815290600101906020018083116103be57829003601f168201915b5050505050815250509050919050565b60016020528060005260406000206000915090508060000154908060010160009054906101000a900473ffffffffffffffffffffffffffffffffffffffff16908060010160149054906101000a90046bffffffffffffffffffffffff169080600201805461045890610e10565b80601f016020809104026020016040519081016040528092919081815260200182805461048490610e10565b80156104d15780601f106104a6576101008083540402835291602001916104d1565b820191906000526020600020905b8154815290600101906020018083116104b457829003601f168201915b5050505050905084565b60006001600085815260200190815260200160002090503373ffffffffffffffffffffffffffffffffffffffff168160010160009054906101000a900473ffffffffffffffffffffffffffffffffffffffff1673ffffffffffffffffffffffffffffffffffffffff161461057b576040517f30cd747100000000000000000000000000000000000000000000000000000000815260040160405180910390fd5b828282600201918261058e929190611027565b5080600101601481819054906101000a90046bffffffffffffffffffffffff168092919060010191906101000a8154816bffffffffffffffffffffffff02191690836bffffffffffffffffffffffff16021790555050837f4edff0078f9c3828d1c82175891b64029ec7dc2bac5ecb6577c95c1b6435e4b88484604051610616929190611133565b60405180910390a250505050565b600080600081548092919061063890611186565b919050555060008054905060405180608001604052808281526020013373ffffffffffffffffffffffffffffffffffffffff16815260200160006bffffffffffffffffffffffff16815260200185858080601f016020809104026020016040519081016040528093929190818152602001838380828437600081840152601f19601f82011690508083019250505050505050815250600160008381526020019081526020016000206000820151816000015560208201518160010160006101000a81548173ffffffffffffffffffffffffffffffffffffffff021916908373ffffffffffffffffffffffffffffffffffffffff16021790555060408201518160010160146101000a8154816bffffffffffffffffffffffff02191690836bffffffffffffffffffffffff160217905550606082015181600201908161077d91906111ce565b50905050600260003373ffffffffffffffffffffffffffffffffffffffff1673ffffffffffffffffffffffffffffffffffffffff1681526020019081526020016000208190806001815401808255809150506001900390600052602060002001600090919091909150553373ffffffffffffffffffffffffffffffffffffffff16817fa5b2eed1bb028a308c4a4b0ebe9c32deeccb838ec53fcf79051a16ee8fc6ac658686604051610830929190611133565b60405180910390a38091505092915050565b604051806080016040528060008152602001600073ffffffffffffffffffffffffffffffffffffffff16815260200160006bffffffffffffffffffffffff168152602001606081525090565b600080fd5b600080fd5b600073ffffffffffffffffffffffffffffffffffffffff82169050919050565b60006108c382610898565b9050919050565b6108d3816108b8565b81146108de57600080fd5b50565b6000813590506108f0816108ca565b92915050565b6000819050919050565b610909816108f6565b811461091457600080fd5b50565b60008135905061092681610900565b92915050565b600080604083850312156109435761094261088e565b5b6000610951858286016108e1565b925050602061096285828601610917565b9150509250929050565b610975816108f6565b82525050565b6000602082019050610990600083018461096c565b92915050565b6000602082840312156109ac576109ab61088e565b5b60006109ba848285016108e1565b91505092915050565b600081519050919050565b600082825260208201905092915050565b6000819050602082019050919050565b6109f8816108f6565b82525050565b6000610a0a83836109ef565b60208301905092915050565b6000602082019050919050565b6000610a2e826109c3565b610a3881856109ce565b9350610a43836109df565b8060005b83811015610a74578151610a5b88826109fe565b9750610a6683610a16565b925050600181019050610a47565b5085935050505092915050565b60006020820190508181036000830152610a9b8184610a23565b905092915050565b600060208284031215610ab957610ab861088e565b5b6000610ac784828501610917565b91505092915050565b610ad9816108b8565b82525050565b60006bffffffffffffffffffffffff82169050919050565b610b0081610adf565b82525050565b600081519050919050565b600082825260208201905092915050565b60005b83811015610b40578082015181840152602081019050610b25565b60008484015250505050565b6000601f19601f8301169050919050565b6000610b6882610b06565b610b728185610b11565b9350610b82818560208601610b22565b610b8b81610b4c565b840191505092915050565b6000608083016000830151610bae60008601826109ef565b506020830151610bc16020860182610ad0565b506040830151610bd46040860182610af7565b5060608301518482036060860152610bec8282610b5d565b9150508091505092915050565b60006020820190508181036000830152610c138184610b96565b905092915050565b610c24816108b8565b82525050565b610c3381610adf565b82525050565b600082825260208201905092915050565b6000610c5582610b06565b610c5f8185610c39565b9350610c6f818560208601610b22565b610c7881610b4c565b840191505092915050565b6000608082019050610c98600083018761096c565b610ca56020830186610c1b565b610cb26040830185610c2a565b8181036060830152610cc48184610c4a565b905095945050505050565b600080fd5b600080fd5b600080fd5b60008083601f840112610cf457610cf3610ccf565b5b8235905067ffffffffffffffff811115610d1157610d10610cd4565b5b602083019150836001820283011115610d2d57610d2c610cd9565b5b9250929050565b600080600060408486031215610d4d57610d4c61088e565b5b6000610d5b86828701610917565b935050602084013567ffffffffffffffff811115610d7c57610d7b610893565b5b610d8886828701610cde565b92509250509250925092565b60008060208385031215610dab57610daa61088e565b5b600083013567ffffffffffffffff811115610dc957610dc8610893565b5b610dd585828601610cde565b92509250509250929050565b7f4e487b7100000000000000000000000000000000000000000000000000000000600052602260045260246000fd5b60006002820490506001821680610e2857607f821691505b602082108103610e3b57610e3a610de1565b5b50919050565b600082905092915050565b7f4e487b7100000000000000000000000000000000000000000000000000000000600052604160045260246000fd5b60008190508160005260206000209050919050565b60006020601f8301049050919050565b600082821b905092915050565b600060088302610edd7fffffffffffffffffffffffffffffffffffffffffffffffffffffffffffffffff82610ea0565b610ee78683610ea0565b95508019841693508086168417925050509392505050565b6000819050919050565b6000610f24610f1f610f1a846108f6565b610eff565b6108f6565b9050919050565b6000819050919050565b610f3e83610f09565b610f52610f4a82610f2b565b848454610ead565b825550505050565b600090565b610f67610f5a565b610f72818484610f35565b505050565b5b81811015610f9657610f8b600082610f5f565b600181019050610f78565b5050565b601f821115610fdb57610fac81610e7b565b610fb584610e90565b81016020851015610fc4578190505b610fd8610fd085610e90565b830182610f77565b50505b505050565b600082821c905092915050565b6000610ffe60001984600802610fe0565b1980831691505092915050565b60006110178383610fed565b9150826002028217905092915050565b6110318383610e41565b67ffffffffffffffff81111561104a57611049610e4c565b5b6110548254610e10565b61105f828285610f9a565b6000601f83116001811461108e576000841561107c578287013590505b611086858261100b565b8655506110ee565b601f19841661109c86610e7b565b60005b828110156110c45784890135825560018201915060208501945060208101905061109f565b868310156110e157848901356110dd601f891682610fed565b8355505b6001600288020188555050505b50505050505050565b82818337600083830152505050565b60006111128385610c39565b935061111f8385846110f7565b61112883610b4c565b840190509392505050565b6000602082019050818103600083015261114e818486611106565b90509392505050565b7f4e487b7100000000000000000000000000000000000000000000000000000000600052601160045260246000fd5b6000611191826108f6565b91507fffffffffffffffffffffffffffffffffffffffffffffffffffffffffffffffff82036111c3576111c2611157565b5b600182019050919050565b6111d782610b06565b67ffffffffffffffff8111156111f0576111ef610e4c565b5b6111fa8254610e10565b611205828285610f9a565b600060209050601f8311600181146112385760008415611226578287015190505b611230858261100b565b865550611298565b601f19841661124686610e7b565b60005b8281101561126e57848901518255600182019150602085019450602081019050611249565b8683101561128b5784890151611287601f891682610fed565b8355505b6001600288020188555050505b50505050505056fea2646970667358221220857ca669029ad8b42edc91028922d4cf8eb389352308384792dc7a8b2cbacbdc64736f6c63430008140033",
  "linkReferences": {},
  "deployedLinkReferences": {}
}